:020000040800F2
:10000000D8460020E90200080B1B00083116000842
:10001000091B000843050008A32000080000000099
:10002000000000000000000000000000290200089D
:10003000450500080000000085020008251D000895
:100040000303000803030008030300080303000878
:100050000303000803030008030300080303000868
:100060000303000803030008030300080303000858
:100070000303000803030008030300080303000848
:100080000303000803030008030300080303000838
:100090000303000803030008030300080303000828
:1000A0000303000803030008030300080303000818
:1000B0000303000803030008030300080303000808
:1000C00003030008030300080303000803030008F8
:1000D00003030008030300080303000803030008E8
:1000E00003030008030300080303000803030008D8
:1000F00003030008030300080303000803030008C8
:1001000003030008030300080303000803030008B7
:1001100003030008030300080303000803030008A7
:100120000303000803030008030300080303000897
:100130000303000803030008030300080303000887
:100140000303000803030008030300080303000877
:100150000303000803030008030300080303000867
:100160000303000803030008030300080303000857
:100170000303000803030008030300080000000055
:10018000030300080303000800F002F800F03CF845
:100190000AA090E8000C82448344AAF10107DA45E2
:1001A00001D100F031F8AFF2090EBAE80F0013F0F8
:1001B000010F18BFFB1A43F0010318472C2B000056
:1001C0004C2B0000103A24BF78C878C1FAD85207E7
:1001D00024BF30C830C144BF04680C6070470000C1
:1001E0000023002400250026103A28BF78C1FBD840
:1001F000520728BF30C148BF0B6070471FB502F0DF
:1002000039FD1FBD10B510BD00F061F91146FFF7B3
:10021000F5FF01F057FF00F07FF903B4FFF7F2FF9D
:1002200003BC00F087F900002C4B19680868B0E89F
:10023000F04F80F30988BFF36F8F4FF0000080F319
:10024000118870470000000008480068006880F3CB
:1002500008884FF0000080F3148862B661B6BFF3DF
:100260004F8FBFF36F8F00DF00BF00BF08ED00E0CE
:10027000DFF80C00016841F470010160704700BFB5
:1002800088ED00E0EFF30980BFF36F8F134B1A681E
:100290001EF0100F08BF20ED108A20E9F04F10600B
:1002A00009B44FF0500080F31188BFF34F8FBFF3B4
:1002B0006F8F02F0F3FA4FF0000080F3118809BC51
:1002C00019680868B0E8F04F1EF0100F08BFB0ECD6
:1002D000108A80F30988BFF36F8F704718000020E1
:1002E000EFF3058070470000094880470948004740
:1002F000FEE7FEE7FEE7FEE7FEE7FEE7FEE7FEE7D6
:10030000FEE7FEE704480549054A064B7047000032
:10031000D51D000889010008D8400020D8460020DB
:10032000D8420020D842002053EA020C00F0698035
:100330002DE9F04B4FF00006002B1FBFB3FA83F5F9
:1003400003FA05F424FA05F65E4012BF1643B2FA2A
:1003500082F502FA05F4C5F120051EBF22FA05FC5C
:1003600044EA0C04203556EA044C4FEA144418BF02
:10037000641C4FF000084FF00009904271EB030C31
:1003800039D3002919BFB1FA81F701FA07F6B0FA9B
:1003900080F700FA07F6C7F120071EBF20FA07FC16
:1003A00046EA0C062037B6FBF4FCA7EB0507103F26
:1003B00007F01F0BCBF120060CFA0BFB2CFA06F60C
:1003C00044BFB3460026202FA4BF5E464FF0000B6B
:1003D0005BEA060C08BF4FF0010B19EB0B09ABFBF6
:1003E000027C48EB0608C01B06FB02CC0BFB03CCCF
:1003F00071EB0C01C1E70B46024641464846BDE899
:10040000F08B13B54FF000004FF00001AFF3008008
:10041000BDE81C40704710B5203AC0F00B80B1E831
:100420001850203AA0E81850B1E81850A0E8185029
:10043000BFF4F5AF5FEA027C24BFB1E81850A0E832
:10044000185044BF18C918C0BDE810405FEA827C4C
:1004500024BF51F8043B40F8043B08BF7047D20763
:1004600028BF31F8023B48BF11F8012B28BF20F804
:10047000023B48BF00F8012B70474FF0000200B567
:10048000134694469646203922BFA0E80C50A0E8B7
:100490000C50B1F12001BFF4F7AF090728BFA0E865
:1004A0000C5048BF0CC05DF804EB890028BF40F831
:1004B000042B08BF704748BF20F8022B11F0804F73
:1004C00018BF00F8012B704770477047704775469A
:1004D00000F02CF8AE4605006946534620F00700B0
:1004E000854618B020B5FFF70DFFBDE820404FF05E
:1004F00000064FF000074FF000084FF0000B21F00E
:100500000701AC46ACE8C009ACE8C009ACE8C009DA
:10051000ACE8C0098D46704710B50446AFF30080C3
:100520002046BDE81040FFF778BE00000048704745
:100530007440002001491820ABBEFEE726000200EF
:100540007047FEE7704700002DE9F84FDFF8BCA1C7
:100550000022012503264FF00F090AF1040BAAF12E
:10056000040E00BF0B6805FA02F42340A34270D1C9
:100570000F7907F00307012F01D0022F16D18768EA
:100580004FEA420806FA08FC27EA0C07D1F80CC02B
:100590000CFA08FC4CEA070CC0F808C04768A743EF
:1005A0000C79C4F3001494403C4344600C79E44358
:1005B000A4070AD0C4684FEA420C06FA0CF7BC4301
:1005C0008F6807FA0CF72743C7600C7904F003041F
:1005D000022C12D1D40800EB840CDCF82040570721
:1005E000FF0E09FA07F824EA0804D1F8108008FA87
:1005F00007F848EA0408CCF8208004684FEA420C67
:1006000006FA0CF7BC430F7907F0030707FA0CF75B
:10061000274307604C6814F4403F70D03C4C276877
:1006200047F480472760246822F0030704F48044DD
:100630000094384C07EB040CDCF8084897074FEAA5
:10064000177809FA08F7BC43334FB84202D10027A4
:1006500024E054E0314FB84201D101271EE0304F71
:10066000B84201D1022719E02E4FB84201D1032729
:1006700014E02D4FB84201D104270FE02B4FB842B0
:1006800001D105270AE02A4FB84201D1062705E02B
:10069000284FB84201D1072700E0082707FA08F7DA
:1006A0002743CCF80878DAF800405746D1F804C060
:1006B0009C435FEACC2C00D51C433C60DBF8004037
:1006C0005F46D1F804C09C435FEA8C2C00D51C43E4
:1006D0003C60DEF800407746D1F804C09C435FEAF6
:1006E0008C3C00D51C433C60084F083F3C68D1F867
:1006F00004C09C435FEACC3C00D51C433C60521CC8
:10070000102AFFF42FAFBDE8F88F0000083C01402D
:100710004438024000300140000002400004024022
:1007200000080240000C0240001002400014024089
:1007300000180240001C0240014880687047000019
:100740000800002070B5040025D094F83D00002575
:1007500020B984F83C50204600F052FA242084F856
:100760003D002068016821F00101016020680168F6
:1007700041F4004101602068016821F400410160FA
:1007800000F09CFB4D4A6168914201D84C4900E061
:100790004C49884201D2012070BD4B492368B0FB0F
:1007A000F1F15E6826F03F060E435E606368934297
:1007B00006D94FF4967359434FF47A73B1FBF3F1B2
:1007C0002368491C1E6A26F03F063143196261689E
:1007D000914210D84900401EB0FBF1F2521CC2F306
:1007E0000B02042A01D2042022E0B0FBF1F0401CED
:1007F000C0F30B001CE0A268F2B301EBC10303EBF2
:100800000116431EB3FBF6F35B1C43F480431B0548
:1008100049D092B301EBC10202EB0111401EB0FBC3
:10082000F1F0401CC0F30B0040F4804040F4004065
:100830002168CA694CF6FF739A431043C861D4E932
:10084000071001432068026822F0C00211430160D2
:10085000D4E9030101432068826848F2FF339A43D8
:1008600011438160D4E9050108432168CA6822F078
:10087000FF021043C86001E00EE016E02068016846
:1008800041F0010101602564202084F83D002563CA
:1008900084F83E50002070BD01EB4106431EB3FBBF
:1008A000F6F35B1CB3E70120C2E701EB4101401EF8
:1008B000B0FBF1F0401CC0F30B00B7E7A0860100CD
:1008C00080841E0000093D0040420F002DE9FF4FCB
:1008D00083B09A46DDE9118793460446DDF84090DF
:1008E000FFF72AFF054694F83D00202870D1192310
:1008F000012274492046009500F0B0FF0028F5D190
:1009000094F83C00012863D0012084F83C00206862
:100910000168C90703D1016841F001010160206845
:10092000016821F400610160222084F83D0040202C
:1009300084F83E0000262664C4F82490A4F82A8097
:10094000608D20856048E062CDE9007553465A46C7
:100950002046049900F084FE002879D1208DD0B182
:10096000012821D00228206824D0416980690090A4
:10097000208D032866D801282BD0544902283B46F5
:100980004FF00002009557D08846204600F066FFE1
:1009900000285DD13AE020684169816900910168D1
:1009A00041F4007101607DE02068016821F48061FC
:1009B0000160F0E7016821F480610160206801684E
:1009C00041F400610160206841698069009069E03C
:1009D00075E02A463946204600F0E6FF88BB54E021
:1009E0002068016841F40071016020680069616A53
:1009F0000870606A401C6062218D491E2185618DEE
:100A0000491E618521680969017042E0206801681A
:100A100021F48061016020680069616A0870606A81
:100A2000401C6062208D401E2085608D401E6085C8
:100A30003B46002241460095204600F00FFF00B9DA
:100A4000CEE705E02A463946204600F0ADFF18B152
:100A5000012007B0BDE8F08F20680069616A087066
:100A6000606A401C6062208D401E81B22185608DCD
:100A7000401E608520684269D243520712D4032980
:100A800003D1016821F48061016020680069616A16
:100A90000870606A401C6062208D401E2085608D59
:100AA000401E6085208D00287FF462AF202084F8EE
:100AB0003D0084F83E6084F83C600020C9E70220D5
:100AC000C7E70000020010000000FFFF0400010063
:100AD0002DE9FF4F83B09A46DDE91197934604460E
:100AE000DDF84080FFF728FE054694F83D002028F9
:100AF0007FD11923012240492046009500F0AEFE27
:100B0000002876D194F83C00012872D0012084F8A6
:100B10003C0020680168C90703D1016841F0010168
:100B200001602068016821F400610160212084F8DF
:100B30003D00402084F83E0000262664C4F824804E
:100B4000A4F82A90608D20852C48E062CDE90075DC
:100B500053465A462046049900F000FE70B930E032
:100B60002A463946204600F057FF58B1206C042829
:100B700004D12068016841F400710160012007B0D0
:100B8000BDE8F08F606A216800780861606A401CE7
:100B90006062218D491E89B22185628D521E628557
:100BA00022685369DB435B070BD469B1007810619D
:100BB000606A401C6062208D401E2085608D401E52
:100BC0006085208D0028CBD12A463946204600F08A
:100BD00019FE0028CAD154F83D0B016841F4007198
:100BE0000160202004F81E09E67766770020C6E73A
:100BF000FFE70220C3E70000020010000000FFFF33
:100C000010B586B0044614216846FFF736FC134938
:100C10002068884220D112480021026842F0020276
:100C20000260006800F002000590C02000901220D1
:100C3000CDE901010320039004200490694609488E
:100C4000FFF782FC06481030016841F40011016092
:100C5000006800F40010059006B010BD005400407C
:100C60003038024000040240024881680278114492
:100C700081607047080000200B4810B5016841F4FE
:100C800000710160016841F480610160016841F414
:100C900080710160032000F065F80F2000F006F875
:100CA00000F024F8002010BD003C024070B50D4D4E
:100CB00004464FF47A712878B1FBF0F00A490968CC
:100CC000B1FBF0F000F0F0FA48B9102C07D2002286
:100CD0002146501E00F026F800206C6070BD0120F7
:100CE00070BD000008000020140000200C4882B0F5
:100CF000016841F480410160006800F48040009088
:100D00000748001F016841F080510160006800221F
:100D100000F0805000900F21901E02B000F002B849
:100D200044380240F0B40E4B1B680C46C3F3022358
:100D3000C3F10705042D00D90425191D072901D287
:100D4000002300E0DB1E012606FA05F1491E2140C2
:100D500099409E40761E16403143F0BC01F0A2B986
:100D60000CED00E0064900F0070208684FF6FF03AB
:100D7000184040EA0220034A104308607047000010
:100D80000CED00E00000FA052DE9F0470E460500E5
:100D900065D0DFF81481D8F80000F7B200F0070042
:100DA000B04207D288F80070D8F8000000F00700C1
:100DB000B04254D128683D4C810712D5400703D575
:100DC000206840F4E05020602878000703D52068B0
:100DD00040F4604020602068A96820F0F0000843DB
:100DE00020602878C0072DD030496868083901286C
:100DF00012D0022813D0032811D0096889070029CE
:100E00002DDA216821F0030101432160FFF794FCF2
:100E1000814641F2883A0EE009688903EFE70968E4
:100E20008901ECE7FFF788FCA0EB0901514502D9E5
:100E30000320BDE8F0872068696800F00C00B0EB83
:100E4000810FEFD1D8F80010404601F00701B14200
:100E500007D90770006800F00700B04201D00120F8
:100E6000E7E72878400705D52068E96820F4E050D6
:100E7000084320602878000706D52068296920F4F7
:100E8000604040EAC100206000F028F82168084A6C
:100E9000C1F30311515CC840064908600648006868
:100EA000FFF704FF0020C4E7003C0240083802407E
:100EB000B82C0008140000200C000020044805494C
:100EC00000680968044AC1F38221515CC840704738
:100ED0001400002008380240C82C0008154810B53E
:100EE000006810F00C02144813D04110042A0FD0EF
:100EF000082A0ED10F4C241F2268236802F03F02FB
:100F00005B0207D52068C0F38810A0FB010106E052
:100F1000084610BD2168C1F38811A1FB0001002320
:100F2000FFF702FA2168C1F30141491C4900B0FBF7
:100F3000F1F010BD083802400024F4002DE9F84F0C
:100F400004006ED02078DFF84C93C007A9F10405A7
:100F50004AD009F104000168C1F38101012908D0D8
:100F60000068C0F3810002280AD1D9F800004002CD
:100F700006D52868800337D560680028E1D033E0C3
:100F80006068B0F5803F10D0B0F5A02F286810D071
:100F900020F480302860286820F480202860606871
:100FA000A8B1FFF7C9FB06460DE0286840F4803081
:100FB000F4E740F480202860F7E700BFFFF7BCFBB0
:100FC000801B642873D828688003F7D50CE0FFF7EE
:100FD000B3FB064605E000BFFFF7AEFB801B6428AD
:100FE000F0D828688003F7D42078DFF8AC82800737
:100FF0004FF0000A3ED5A748001D016811F00C0F04
:1010000008D00068C0F3810002280BD1D9F8000095
:10101000400207D42868800716D5E068012800D16F
:1010200012E033E1E068B8B10120C8F80000FFF732
:1010300083FB064605E000BFFFF77EFB801B02280E
:10104000C0D828688007F7D52868216920F0F80003
:1010500040EAC10028600DE0C8F800A0FFF76CFB73
:10106000064604E0FFF768FB801B02281FD82868AB
:101070008007F7D42078000722D5864F874861691A
:10108000703771B101210160FFF756FB064604E09D
:10109000FFF752FB801B022809D838688007F7D574
:1010A0000EE0C0F800A0FFF747FB064605E082E02F
:1010B000FFF742FB801B02287DD838688007F7D4F1
:1010C0002078400768D5DFF8CCB100270BF13C0B46
:1010D000DBF80000C0000BD4DBF8001041F08051B9
:1010E000CBF80010DBF80000012700F080500090E2
:1010F0006B4E3068C00510D4306840F480703060AA
:10110000FFF71AFB009005E0FFF716FB0099401A65
:10111000022850D83068C005F6D55E4EA0686C36FF
:1011200001280FD00528306810D020F00100306071
:10113000306820F004003060A068B8B1FFF7FCFA16
:1011400000900FE0306840F00100F4E740F0040048
:101150003060F7E7FFF7F0FA0099411A41F2883062
:10116000814266D830688007F4D50EE0FFF7E4FAD4
:10117000009007E0FFF7E0FA0099411A41F2883049
:10118000814256D830688007F4D42FB1DBF80010C4
:1011900021F08051CBF80010A069C8B33D49091D6A
:1011A0000968C1F3810102294AD00228504607D0BC
:1011B000C8F8600000E03CE0FFF7BEFA04463BE000
:1011C0004746C8F86000FFF7B7FA064605E000BFDB
:1011D000FFF7B2FA801B02282BD828688001F7D4C9
:1011E000D4E907010843A16A2E4A490802EB0141EC
:1011F000626A41EA8211084394F82C1040EA0161C6
:10120000C9F8001001203866FFF796FA044606E098
:101210003EE000BFFFF790FA001B022809D82868BB
:101220008001F7D534E000BFFFF786FA001B0228E3
:1012300002D90320BDE8F88F28688001F4D427E0A4
:101240000128F7D0D9F80000E26900F4800191424A
:101250001CD1226A00F03F01914217D147F6C071BC
:10126000626A0140B1EB821F10D1A26A4FF0FF33D6
:1012700000F4403103EB5202B1EB024F06D194F877
:101280002C1000F07060B0EB016F01D00120D1E7AD
:101290000020CFE70438024000004742800E47425A
:1012A000007000400000FFFF10B5401EB0F1807FCD
:1012B00001D3012010BD4FF0E02460610F216017C1
:1012C00000F0F0FE0020A06107202061002010BD8A
:1012D00070B590F83C20012A32D0012480F83C40BF
:1012E000022280F83D2003685A689D6822F070064B
:1012F0000A6832435A60134B02689A4214D0B2F122
:10130000804F11D0104B9A420ED0104B9A420BD006
:101310000F4B9A4208D00F4B9A4205D00E4B9A427F
:1013200002D00E4B9A4204D1496825F0800319433C
:10133000916080F83D40002180F83C10084670BD67
:10134000022070BD00000140000400400008004081
:10135000000C004000040140004001400018004023
:1013600010B5040003D094F83D0010B107E001204F
:1013700010BD002084F83C00204600F01FF8022039
:1013800084F83D00211D206800F02CFD012084F828
:10139000460084F83E0084F83F0084F8400084F85A
:1013A000410084F8420084F8430084F8440084F843
:1013B000450084F83D00002010BD000008B500681D
:1013C000B0F1804F08D10548016841F0010101608A
:1013D000006800F00100009008BD000040380240A5
:1013E00070B5044690F83C000025012817D001266E
:1013F00084F83C60022084F83D002068826822F076
:10140000770222F47F4282600868502838D00DDCD1
:1014100020284FD005DC90B3102811D14AE00220DB
:1014200070BD302846D040280AD13BE060282FD03C
:1014300070280DD0B0F5805F03D0B0F5005F12D0FA
:10144000012584F83D60002084F83C00284670BDEA
:10145000CB68D1E90121206800F02CFD206881686B
:1014600041F0770109E0CB68D1E90121206800F063
:1014700021FD2068816841F480418160E1E719E045
:10148000CA684968206800F0E9FD5021206806E03C
:10149000CA684968206800F0F2FD6021206800F009
:1014A00013FDCEE7CA684968206800F0D7FD4021E7
:1014B0002068F4E7226801461046F0E710B586B0D0
:1014C000044614216846FEF7D8FF2068B0F1804F2B
:1014D00014D10B480021026842F00102026000684A
:1014E000022200F00100059001200090CDE90121C9
:1014F000CDE9031069460348FFF726F806B010BD92
:10150000303802400000024070B5044690F83C00BC
:1015100000260D4601280FD0012084F83C006AB156
:10152000042A1DD0082A2FD00C2A3FD001260020E3
:1015300084F83C00304670BD022070BD206800F089
:10154000CBFC2068816941F00801816120688169D4
:1015500021F004018161206881692A69114311E049
:10156000206800F0E9FC2068816941F40061816134
:101570002068816921F480618161206881692A691C
:1015800041EA02218161D2E7206800F00BFD20686A
:10159000C16941F00801C1612068C16921F00401FD
:1015A000C1612068C1692A69114311E0206800F017
:1015B0002DFD2068C16941F40061C1612068C169E5
:1015C00021F48061C1612068C1692A6941EA022170
:1015D000C161ACE710B5040003D094F83D0010B130
:1015E00007E0012010BD002084F83C00204600F0F8
:1015F0001EF8022084F83D00211D206800F0F2FB57
:10160000012084F8460084F83E0084F83F0084F806
:10161000400084F8410084F8420084F8430084F8D4
:10162000440084F8450084F83D00002010BD704758
:10163000FEE701684A69D24352050FD46FF4806215
:101640004A61002140F8301F2022427381730269F1
:1016500042F00402026101730120704700207047CC
:101660002DE9F84F0446006889460B9D01689846AD
:10167000174641F4806101602068016841F480717F
:10168000016000954FF0011B0022594620460A9B3D
:1016900000F0E4F84FF4007A40B120680068C0051B
:1016A00001D5C4F840A00320BDE8F88F216809F0F7
:1016B000FE0008612B46284920460A9A00F016F9D8
:1016C000F0BB20684169806900902A4620460A994B
:1016D00000F0A2F940B1206C04283AD120680168DA
:1016E00041F40071016034E0FEB2B8F1010F09D09D
:1016F0002168380A08612A4620460A9900F08CF9C8
:101700000028E8D1206806612A4620460A9900F0A0
:1017100083F90028DFD12068016841F480710160FD
:1017200000950022594620460A9B00F097F80028B1
:10173000B3D1216809F0FF0040F00100086100E02A
:1017400007E02B46044920460A9A00F0CFF800280B
:10175000AAD00120A8E70000020001002DE9F8430B
:10176000044600680D46DDE908970168984616466C
:1017700041F4807101604B4600224FF00111204678
:10178000009700F06BF848B120680068C00502D5EA
:101790004FF4007020640320BDE8F883216805F051
:1017A000FE0008613B464A461549204600F09EF877
:1017B00088B920684169806900903A4649462046C8
:1017C00000F02AF948B1206C042804D1206801688F
:1017D00041F4007101600120DEE7F5B2B8F1010FBC
:1017E00009D02168300A08613A464946204600F08F
:1017F00013F90028E7D1206805610020CCE700003C
:101800000200010070B516460D4604461EE0204653
:10181000FFF70FFF08B1012070BD681C16D0FEF75E
:101820008BFF801BA84200D885B920684069C0435F
:1018300040070BD5002044F8300F20216173A073BE
:10184000216941F0200121612073E4E720684069AB
:10185000C0434007DBD4002070BD00002DE9F047F5
:10186000984617460D460446C1F30746DDF820901A
:101870002AE000BFB8F1FF3F26D0FEF75DFFA0EBE6
:101880000901414502D8B8F1000F1DD12068012E91
:1018900016D0806925EA00000004000C12D0002058
:1018A000B84211D1002044F8300F20216173A07399
:1018B000216941F02001216120730120BDE8F087FA
:1018C0004069E7E70120EBE72068012E0AD0806934
:1018D00025EA00000004000C06D00020B842C9D060
:1018E0000020EBE74069F3E70120F7E72DE9F04737
:1018F000984616460D4604464FF000094FF0200A60
:10190000C1F3074723E020684069C043400515D470
:101910002068016841F40071016021686FF4806003
:101920004861C4F8309084F83DA084F83E90216C62
:1019300041F00401216484F83C9021E0701C06D041
:10194000FEF7FAFEA0EB0800B04203D816B1012F53
:101950001FD021E02068012F15D0806925EA000002
:101960000004000C18D000BF44F8309F84F80DA08C
:1019700084F80E90216941F02001216184F80C90D7
:101980000120BDE8F087406925EA00000004000C52
:10199000EAD12068406901E02068806925EA0000FA
:1019A0000004000CAFD1ECE72DE9F0410025904692
:1019B0000E460446202728E04069C043C0060CD4E8
:1019C00054F8301B6FF01000486144F810596777E5
:1019D000A577206A2062257714E0FEF7ADFEA0EB24
:1019E0000800B04200D886B920684069C04340066C
:1019F0000BD544F8305F6773A573206940F0200071
:101A0000206125730120BDE8F08120684169C94348
:101A10004906D1D40020F6E770B516460D460446B7
:101A20001EE02046FFF705FE08B1012070BD681CCE
:101A300016D0FEF781FE801BA84200D885B9206829
:101A40004069C04300060BD5002044F8300F202128
:101A50006173A073216941F0200121612073E4E7E3
:101A600020684069C0430006DBD4002070BD000040
:101A700010B58EB000240794089409940A940B942E
:101A80001C2168460C94FEF7F8FC1E484FF080417C
:101A900001605321C0E9011444F61F61C0E9031439
:101AA0008461FFF75DFC08B172B6FEE74FF4805029
:101AB000079007A91348FFF793FC08B172B6FEE739
:101AC0001048FFF787FD08B172B6FEE70B940BA92B
:101AD0000C480C94FFF7FCFB08B172B6FEE76020DF
:101AE000CDE9000402940022694606480494FFF7F9
:101AF0000BFD08B172B6FEE70248FFF7DFFC0EB03F
:101B000010BD0000E8000020FEE7FEE71FB540F230
:101B1000F651884201D3032007E0182801D8FF209E
:101B200003E014490003B1FBF0F08DF80C00012232
:101B30000421002000F022F801210A2203A88DE8E8
:101B400007000B46FE2280210B48FEF7C1FF002252
:101B50000421104600F012F801220721002000F0B5
:101B60000DF804B001220521BDE81040002000F06E
:101B700005B8000040787D01940000202DE9FF4762
:101B8000012503AE0A2400961746CDE90154884684
:101B9000814602462B4680210D48FEF797FE012024
:101BA0009DF80C1000FA08F06FB108438DF80C0096
:101BB0000096CDE9015401234A4680210448FEF7EE
:101BC00087FFBDE8FF8781438DF80C10F0E7000028
:101BD000940000201FB5DFED200AB5EEC00A0023F7
:101BE000F1EE10FA1B4A02D29FED1C0A05E010EE3E
:101BF000101A914201DDB0EE600A828880EE201A50
:101C000041880078521A00EE102A06228DF80C3016
:101C1000F8EEC00A00EE101A02EB80008DF80D30CD
:101C2000B8EE400AC2B20A2301EE200ABCEEC00A96
:101C300010EE101A8DF80E10080A8DF80F0004210E
:101C400003A88DE80B00012380210548FEF740FF23
:101C50001FBD0000000034430000344300000000BA
:101C6000940000202DED048B3220FFF74FFF254C10
:101C7000DFED238A9FED249ADFED249A4FF47A76E4
:101C800004F10C05B0EE688A1E48B0EE480AFFF772
:101C9000A1FFB0EE480AA01DFFF79CFFB0EE480A76
:101CA0002846FFF797FF304600F06CFAB0EE498AFD
:101CB0001448B0EE480AFFF78DFFB0EE480AA01DA9
:101CC000FFF788FFB0EE480A2846FFF783FF30464B
:101CD00000F058FAB0EE698A0A48B0EE480AFFF7F9
:101CE00079FFB0EE480AA01DFFF774FFB0EE480A76
:101CF0002846FFF76FFF304600F044FAC2E70000C5
:101D000000000000800000200000B44200003443C6
:101D1000FFF7A8FF012000F035FAFBE7012000F0F3
:101D200031FAFBE710B5FEF79FFF00F0CDFE01286A
:101D300003D0BDE8104000F059BE10BD30B593B0DF
:101D400030216846FEF799FB14210CA8FEF795FB9D
:101D50001E480025016841F080510160006800F0D4
:101D6000805011901A48016841F480410160006878
:101D7000022400F4804011900120009000040190A2
:101D80008001CDE90640082008904FF4A870CDE905
:101D9000090404200B906846FFF7D0F808B172B62A
:101DA000FEE70CA90F2081E831004FF4A0500F90FE
:101DB0004FF48050109005210CA8FEF7E5FF002895
:101DC00001D072B6FEE713B030BD000040380240CB
:101DD000007000400248016841F4700101607047E2
:101DE00088ED00E0F0B50268274B284D284E294FBA
:101DF000294C4FF0804C984209D0604507D0A8424A
:101E000005D0B04203D0B84201D0A04204D122F0A4
:101E1000700E4A6842EA0E0298421BD0604519D003
:101E2000A84217D0B04215D0B84213D0A04211D06A
:101E30001A4DA8420ED01A4DA8420BD0194DA842F7
:101E400008D0194DA84205D0184DA84202D0184D0F
:101E5000A84203D122F44075CA682A434D6922F092
:101E600080022A438D68C5620D688562984201D060
:101E7000A04201D109690163016841F004010160D8
:101E8000012141610260F0BD0000014000040040FA
:101E900000080040000C00400004014000400140E8
:101EA000004401400048014000180040001C004070
:101EB0000020004010B5846842EA032224F47F44E5
:101EC0000A432243826010BD826822F070020A43F6
:101ED00042F0070181607047F0B5036A026A22F0A0
:101EE0000102026242688469124E24F073050C6894
:101EF0002C4323F002058B682B430D4DA84201D0E3
:101F0000B04205D123F00807CB683B4323F004031C
:101F1000A84201D0B04205D14D6922F44072154368
:101F20008A692A4342608461496841630362F0BD63
:101F30000000014000040140F0B5026A036A23F08A
:101F400010030362436884690D6824F4E64444EA9C
:101F500005248D6822F0200242EA05120F4D104E32
:101F6000A84201D0B04206D1CF6822F0800242EAF6
:101F7000071222F04002A84201D0B04207D14D69B9
:101F800023F4406343EA85038D6943EA8503436094
:101F90008461496881630262F0BD00000000014075
:101FA00000040140F0B5026A036A23F480730362FF
:101FB0004368C46922F4007224F073050C68124E61
:101FC0002C438D6842EA05220E4DA84201D0B04252
:101FD00006D1CF6822F4006242EA072222F480622E
:101FE000A84201D0B04207D14D6923F4405343EADF
:101FF00005138D6943EA05134360C4614968C163F1
:102000000262F0BD000001400004014030B5046AE6
:10201000026A22F4805202624268C3690D6823F4A6
:10202000E64343EA05238D6824F4005444EA05346A
:10203000084DA84202D0084DA84204D14D6922F4AF
:10204000804242EA85124260C361496801640462C9
:1020500030BD0000000001400004014010B5036ADB
:10206000046A24F001040462846924F0F00444EA60
:10207000021423F00A020A438461026210BD10B503
:10208000036A046A24F010040462846923F0A00344
:1020900024F4704444EA023243EA0111826101628D
:1020A00010BDFEE70907090E002804DB00F1E0205F
:1020B00080F80014704700F00F0000F1E02080F875
:1020C000141D704790B0FEF7D7FDFFF737FE244888
:1020D0000024016841F080010160016801F0800185
:1020E0000E91016841F001010160016801F00101F8
:1020F0000E91016841F002010160006800F00200E9
:102100000E90FFF7B5FC1848164901601749C0E961
:1021100001144FF48041C0E9034144618461C4610A
:102120000462FEF70FFB08B172B6FEE71C221049ED
:102130006846FEF770F90021684600F02FF80D4C54
:102140000B491C2220601C3107A8FEF764F900210E
:1021500007A800F023F8606000F01BF8FEE700001D
:10216000303802400054004094000020A086010056
:10217000802C00080000002001460020842900D0A7
:10218000C81C704710B500B9012000F023FB0020E7
:1021900010BD10B500F044FB002010BD7FB50D460A
:1021A00004464169B0F9080081B1A16971B1FFF736
:1021B000E3FFD4E905128DE80700D4E900102B46AF
:1021C000226900F056FC039004B070BDFFF7D4FF05
:1021D00003A9CDE90001208A2B4682B2D4E9001080
:1021E00000F01AFC012801D00020EDE70398EBE78E
:1021F0002DE9F041184C0F460546E6682068001DA1
:1022000000F020FA38B9206890F82C10012088409E
:10221000216981432161681C07D137B12168BDE87C
:10222000F0410E48091D00F051BA20683544B5420E
:102230004560216805D2A06BBDE8F041091D00F0A2
:102240002DBA606B091D00F029FAA06A854200D200
:10225000A562BDE8F08100001800002060040020A5
:102260002DE9F041054600F03DFA2E4CA068401CD7
:10227000A06020682C4F10B1606940B32DE025604C
:10228000A068012829D1002606EB860007EB800014
:1022900000F0F6F9761C072EF6D323488C3000F0B8
:1022A000EFF92148A03000F0EBF91F48B43000F0FE
:1022B000E7F91D48C83000F0E3F91B48DC3000F0B6
:1022C000DFF919488C3060631430A06305E02068A2
:1022D000E96AC06A884200D82560606A401C606272
:1022E000E96A0120226988401043206101EB8100E6
:1022F00007EB8000291D00F0E9F900F013FA60698E
:1023000000280CD02068E96AC06A884207D20749D1
:102310004FF080500860BFF34F8FBFF36F8FBDE861
:10232000F0810000180000208403002004ED00E08C
:1023300010B5044690F8510058B101280CD002287D
:102340000FD0502080F31188BFF34F8FBFF36F8FF2
:10235000FEE7206B00F0FAF92046BDE8104000F0DF
:10236000F5B910BD10484FF47051420706D0C01D9A
:102370000D4920F00700411AC1F570510B4A0023A6
:102380000144C2E900030839183A21F0070111603D
:102390004B600B600B1AC0E9001393604FF00040D4
:1023A0005360506170470000740400206C000020EE
:1023B000144E154CA6F1C8074FF08058DFF84C902A
:1023C00012E000BF00F08EF9F068C568281D00F02B
:1023D00039F9A068401EA0606068401E606000F08F
:1023E000A1F92846FFF7A4FF60680028EAD1386801
:1023F0000128F9D9C9F80080BFF34F8FBFF36F8F61
:10240000F2E700004C0400201800002004ED00E07A
:102410002DE9F0479A46DDE9098481466FF0030310
:10242000206B03EB82021044089E20F00707780718
:1024300007D0502080F31188BFF34F8FBFF36F8F09
:10244000FEE7002561B1002023180A5C83F83420E0
:102450000A5C12B1401C1028F6D384F8435001E006
:1024600084F83450072E00D30626E662C4E91165CD
:10247000201D00F010F904F1180000F00CF924619F
:10248000C6F107006462A061E56484F850505246CA
:102490004946384600F0C0F82060B8F1000F01D07E
:1024A000C8F80040BDE8F08730B5114900E011469A
:1024B0000A688242FBD34B685C18844203D14068AF
:1024C00018444860084643681C18944209D1084CD7
:1024D000183C2468A24209D052681A4442600A6833
:1024E00012680260814200D0086030BD0460F9E7E4
:1024F0006C0000200648416B096829B1416BC9682E
:10250000C9684968816270474FF0FF31FAE70000FF
:102510001800002008484068401C4FF0500080F32D
:10252000118804D0BFF34F8FBFF36F8FFEE7BFF367
:102530004F8FBFF36F8FFEE7740000202DE9F0414D
:102540000546002700F0A2F9324E306808B9FFF7BF
:1025500009FF706905424ED1C5B3083568070ED032
:1025600005F00700C0F108000544680707D05020B7
:1025700080F31188BFF34F8FBFF36F8FFEE72DB34A
:102580007068854237D82348183001460C6801E04E
:1025900020460C466168A94202D221680029F7D181
:1025A00031688C4227D0076821680160606808376D
:1025B000411B10290FD96019420708D0502080F321
:1025C0001188BFF34F8FBFF36F8FFEE713E04160B9
:1025D0006560FFF769FF61687068401A7060B268F3
:1025E000904200D2B060706901430020C4E900014C
:1025F000F068401CF06000F0DBFA780707D050204C
:1026000080F31188BFF34F8FBFF36F8FFEE738461B
:10261000BDE8F0815400002010B5031F4FF0807416
:102620001C601B1F21F001011960191F044B0B6076
:1026300014390A60091F6FF0020244380A6010BDA5
:1026400015250008D0E9013201699A60D0E901231B
:102650005A604A68824201D182684A60002202615F
:102660000868401E0860086870470000034B03605C
:1026700003F1540008608020106070473001002092
:1026800000F108014FF0FF32C0E90112C1600161A1
:1026900000210160704700210161704730B50B686F
:1026A0005A1C02D000F1080202E0026904E022464E
:1026B000546825689D42FAD953684B6099608A60D6
:1026C000516008610168491C016030BD42684A6080
:1026D00093688B6093685960916008610168491C38
:1026E00001607047502080F31188BFF34F8FBFF314
:1026F0006F8F0A494868401C486001280CD108487F
:10270000006810F0FF0F07D0502080F31188BFF34E
:102710004F8FBFF36F8FFEE77047000074000020FB
:1027200004ED00E00849486828B1401E486001D126
:1027300080F311887047502080F31188BFF34F8FCA
:10274000BFF36F8FFEE700007400002070B5002813
:102750002AD0164DA0F1080460686969084207D1C3
:10276000502080F31188BFF34F8FBFF36F8FFEE7C8
:1027700022683AB1502080F31188BFF34F8FBFF326
:102780006F8FFEE78843606000F080F860686968DA
:10279000084468602046FFF787FE2869401C2861CE
:1027A000BDE8704000F004BA70BD00005400002085
:1027B0004FF0E02000210161816105494FF47A72F8
:1027C0000968B1FBF2F1491E4161072101617047BF
:1027D0001400002010B5020014D00F48006B38B16F
:1027E000502080F31188BFF34F8FBFF36F8FFEE748
:1027F00000F04CF800211046FFF7FAFC00F0D8F981
:10280000002807D105494FF080500860BFF34F8F73
:10281000BFF36F8F10BD00001800002004ED00E032
:1028200010B586B00024039405AA04A903A8049453
:10283000FFF71CFFDDE903010094CDE9011000233F
:102840000EA11048059A00F014F90F490028C8623B
:1028500011D0502080F31188BFF34F8FBFF36F8FDB
:102860004FF0FF30886201204861CC6006B0BDE8BF
:10287000104000F041B806B010BD000049444C457E
:1028800000000000B1230008180000200248016B7E
:10289000491C016370470000180000201448016BB8
:1028A00011B10121C16170470021C1610169B1FA13
:1028B00081F1C1F11F0101EB81020E4951F8223073
:1028C0006BB101EB820101F108034A6852684A606A
:1028D0009A4201D152684A60D16801607047502025
:1028E00080F31188BFF34F8FBFF36F8FFEE70000B7
:1028F00018000020840300201CB537480168374ABF
:10290000914207D1502080F31188BFF34F8FBFF35E
:102910006F8FFEE700683149491E884207D1502079
:1029200080F31188BFF34F8FBFF36F8FFEE72C4901
:1029300008780190FF20087008788DF800009DF855
:1029400000009DF8002000F0F000904207D05020D9
:1029500080F31188BFF34F8FBFF36F8FFEE79DF8B1
:102960000000204C00F0500020700720A06005E01F
:102970009DF8002052008DF80020401E9DF8002098
:102980001206F5D4A060032807D0502080F31188E8
:10299000BFF34F8FBFF36F8FFEE74FF44070A0601F
:1029A000019808700C482030016841F47001016002
:1029B000016841F070410160FFF7FAFE002060609D
:1029C000FDF756FC0848016841F040410160FDF701
:1029D0003BFC00201CBD000000ED00E071C20F4177
:1029E00000E400E07400002034EF00E010B5502057
:1029F00080F31188BFF34F8FBFF36F8F00F072F831
:102A000018B104494FF080500860002080F311880D
:102A100010BD000004ED00E02DE9FF5F8346DDE915
:102A20000E87994616468A469000FFF787FD0500F7
:102A30001CD05420FFF782FD040014D00020256331
:102A400084F85100CDE90240CDE900874B4632467B
:102A500051465846FFF7DCFC2046FFF701FC0120F9
:102A600004B0BDE8F09F2846FFF770FE4FF0FF303E
:102A7000F6E7F0B585B0DDE90B640A9DA6B1DCB1DF
:102A8000542700972663022684F85160002604AF7D
:102A9000CDE90246CDE90057FFF7BAFC2046FFF723
:102AA000DFFB049805B0F0BD502080F31188BFF320
:102AB0004F8FBFF36F8FFEE7502080F31188BFF375
:102AC0004F8FBFF36F8FFEE70548416919B1006B67
:102AD00018B10020704701207047022070470000A5
:102AE000180000202DE9F0412F4C0026206B28B162
:102AF000A069401CA0613046BDE8F081E5686D1C0E
:102B0000E56013D1606B006838B1502080F3118804
:102B1000BFF34F8FBFF36F8FFEE7606BA16B6163F5
:102B2000A063206A401C2062FFF7E4FCA06ADFF883
:102B30007C80854209D3606B0068A0B1606BC0687F
:102B4000C7687868854211D2A0622068C06A00EB2D
:102B5000800158F82100012800D90126E0690028E9
:102B6000C9D00126C7E74FF0FF30EDE7381DFFF76A
:102B700069FDB86A18B107F11800FFF763FDF96A3B
:102B80000120226988401043206101EB810108EB9C
:102B90008100391DFFF79AFDF86A2168C96A8842E9
:102BA000C9D30126C7E700001800002084030020D5
:102BB0002DE9F0472C4D00242746286B38B1FFF74C
:102BC00091FD286B401E2863286B40B146E05020E1
:102BD00080F31188BFF34F8FBFF36F8FFEE7A968B3
:102BE000224E0120D1B3A6F1B40980463068E8B185
:102BF000F068C46804F11800FFF724FD201DFFF7FA
:102C000021FDE06A2A6908FA00F11143296100EB0D
:102C1000800109EB8100211DFFF758FDE06A29685A
:102C2000C96A8842E2D3C5F81C80DFE70CB1FFF720
:102C300061FCAC6944B14646FFF754FF00B1EE6158
:102C4000641EF9D10020A861E86938B1084901275C
:102C500038070860BFF34F8FBFF36F8FFFF762FD38
:102C60003846BDE8F0870000180000203804002036
:102C700004ED00E04FF04070E1EE100A70470000F4
:102C8000DC2C00081D1D00080000000000000000F2
:102C9000800000000000000000000000D02C0008B0
:102CA000111D00080000000000000000800000006E
:102CB0000000000000000000000000000000000014
:102CC00001020304060708090000000001020304D2
:102CD000536572766F5461736B00000064656661C2
:102CE000756C745461736B00082D0008000000209F
:102CF00094000000C40100089C2D000894000020EE
:102D000044460000E0010008000000000000000050
:102D10000100000010000000000000000024F4008A
:102D200000000000000000000000000000000000A3
:102D30000000000000000000000000000000000093
:102D40000000000000000000000000000000000083
:102D50000000000000000000000000000000000073
:102D60000000000000000000000000000000000063
:102D70000000000000000000000000000000000053
:102D8000AAAAAAAA00000000000066003A020100F8
:0C2D90006E00440202005F0030020000F0
:040000050800018965
:00000001FF
