:020000040800F2
:1000000098470020E90200083F240008191F000853
:100010003D24000843050008612D00080000000091
:10002000000000000000000000000000290200089D
:10003000F50500080000000085020008ED25000815
:100040000303000803030008030300080303000878
:100050000303000803030008030300080303000868
:100060000303000803030008030300080303000858
:100070000303000845050008030300080303000804
:100080000303000803030008030300080303000838
:100090000303000803030008030300080303000828
:1000A0000303000803030008030300080303000818
:1000B0000303000803030008030300080303000808
:1000C00003030008030300080303000803030008F8
:1000D00003030008030300080303000803030008E8
:1000E00003030008030300080303000803030008D8
:1000F00003030008030300080303000803030008C8
:1001000003030008030300080303000803030008B7
:100110006D29000803030008030300080303000817
:100120000303000803030008030300080303000897
:100130000303000803030008030300080303000887
:100140000303000803030008030300080303000877
:100150000303000803030008030300080303000867
:100160000303000803030008030300080303000857
:100170000303000803030008030300080000000055
:10018000030300080303000800F002F800F03CF845
:100190000AA090E8000C82448344AAF10107DA45E2
:1001A00001D100F031F8AFF2090EBAE80F0013F0F8
:1001B000010F18BFFB1A43F0010318471438000061
:1001C00034380000103A24BF78C878C1FAD85207F2
:1001D00024BF30C830C144BF04680C6070470000C1
:1001E0000023002400250026103A28BF78C1FBD840
:1001F000520728BF30C148BF0B6070471FB503F0DE
:10020000A9FB1FBD10B510BD00F061F91146FFF745
:10021000F5FF02F0B7FD00F07FF903B4FFF7F2FF3E
:1002200003BC00F087F900002C4B19680868B0E89F
:10023000F04F80F30988BFF36F8F4FF0000080F319
:10024000118870470000000008480068006880F3CB
:1002500008884FF0000080F3148862B661B6BFF3DF
:100260004F8FBFF36F8F00DF00BF00BF08ED00E0CE
:10027000DFF80C00016841F470010160704700BFB5
:1002800088ED00E0EFF30980BFF36F8F134B1A681E
:100290001EF0100F08BF20ED108A20E9F04F10600B
:1002A00009B44FF0500080F31188BFF34F8FBFF3B4
:1002B0006F8F03F063F94FF0000080F3118809BCE1
:1002C00019680868B0E8F04F1EF0100F08BFB0ECD6
:1002D000108A80F30988BFF36F8F704718000020E1
:1002E000EFF3058070470000094880470948004740
:1002F000FEE7FEE7FEE7FEE7FEE7FEE7FEE7FEE7D6
:10030000FEE7FEE704480549054A064B7047000032
:100310009D26000889010008984100209847002088
:10032000984300209843002053EA020C00F06980B3
:100330002DE9F04B4FF00006002B1FBFB3FA83F5F9
:1003400003FA05F424FA05F65E4012BF1643B2FA2A
:1003500082F502FA05F4C5F120051EBF22FA05FC5C
:1003600044EA0C04203556EA044C4FEA144418BF02
:10037000641C4FF000084FF00009904271EB030C31
:1003800039D3002919BFB1FA81F701FA07F6B0FA9B
:1003900080F700FA07F6C7F120071EBF20FA07FC16
:1003A00046EA0C062037B6FBF4FCA7EB0507103F26
:1003B00007F01F0BCBF120060CFA0BFB2CFA06F60C
:1003C00044BFB3460026202FA4BF5E464FF0000B6B
:1003D0005BEA060C08BF4FF0010B19EB0B09ABFBF6
:1003E000027C48EB0608C01B06FB02CC0BFB03CCCF
:1003F00071EB0C01C1E70B46024641464846BDE899
:10040000F08B13B54FF000004FF00001AFF3008008
:10041000BDE81C40704710B5203AC0F00B80B1E831
:100420001850203AA0E81850B1E81850A0E8185029
:10043000BFF4F5AF5FEA027C24BFB1E81850A0E832
:10044000185044BF18C918C0BDE810405FEA827C4C
:1004500024BF51F8043B40F8043B08BF7047D20763
:1004600028BF31F8023B48BF11F8012B28BF20F804
:10047000023B48BF00F8012B70474FF0000200B567
:10048000134694469646203922BFA0E80C50A0E8B7
:100490000C50B1F12001BFF4F7AF090728BFA0E865
:1004A0000C5048BF0CC05DF804EB890028BF40F831
:1004B000042B08BF704748BF20F8022B11F0804F73
:1004C00018BF00F8012B704770477047704775469A
:1004D00000F02CF8AE4605006946534620F00700B0
:1004E000854618B020B5FFF70DFFBDE820404FF05E
:1004F00000064FF000074FF000084FF0000B21F00E
:100500000701AC46ACE8C009ACE8C009ACE8C009DA
:10051000ACE8C0098D46704710B50446AFF30080C3
:100520002046BDE81040FFF778BE00000048704745
:100530003441002001491820ABBEFEE7260002002E
:100540007047FEE7014800F0B3B8000078010020D2
:1005500001681823CAB2103AB2FBF3F2054B6FF3ED
:100560000901032A9B5CC36500D9091D8165084602
:10057000704700009839000810B5014600208B69CB
:100580008A6A4FF0C07453B1B3F5005F15D072B1F1
:10059000012A0CD0022A0AD0032A09D104E01AB198
:1005A000012A06D0022A03D1C96AC90100D5012057
:1005B00010BDC96AA142FAD010BD002AF7D0012AA5
:1005C000F2D0022AF3D0032AF3D010BD30B504686C
:1005D000256825F480252560046863608368402BC6
:1005E000036803D099600068C26030BD9A600068FB
:1005F000C16030BD704772B6FEE72DE9F041044698
:10060000876D00F0BFFA064694F8350000250228F1
:1006100006D08020606584F834500120BDE8F08168
:100620002068016821F0160101602068416921F00D
:1006300080014161206C08B9A06C20B1206801687C
:1006400021F0080101602068016821F001010160CA
:100650000CE000F097FA801B052807D92020606580
:10066000032084F8350084F83450D7E72068006808
:10067000C007EED194F85C103F208840B86001209C
:1006800084F8350084F834500020C7E790F835101E
:10069000022903D08021416501207047052180F89F
:1006A00035100068016821F00101016000207047E9
:1006B0002DE9F84304464FF00009CDF80090634857
:1006C0004FF41651A56D0068B0FBF1F72E6894F851
:1006D0005C10082000FA01F131420FD021680A684D
:1006E00052070BD50A6822F004020A6094F85C10E5
:1006F0008840A860606D40F00100606594F85C106F
:100700004FF0010808FA01F0304208D02168496929
:10071000090604D5A860606D40F00200606594F899
:100720005C1004208840304208D02168096889079D
:1007300004D5A860606D40F00400606594F85C101A
:1007400010208840304218D021680968090714D564
:10075000A86020680168490304D50068000308D533
:10076000A16C07E00168C90503D4016821F0080104
:100770000160216C09B12046884794F85C10202064
:100780008840304231D021680968C9062DD5A8605B
:1007900094F8350005282068016806D0490347D53C
:1007A000006800031DD4616C1CE021F0160101609B
:1007B0002068416921F080014161206C08B9A06C7A
:1007C00020B12068016821F00801016094F85C10F4
:1007D0003F208840A86084F8358084F83490216DEB
:1007E0001FE0E16B09B120468847606D00282BD0DF
:1007F000606DC00714D0052084F8350020680168BA
:1008000021F0010101600098401C0090B84203D81B
:1008100020680068C007F6D184F8358084F83490E9
:10082000E16C002910D001B02046BDE8F043084734
:100830000168C905D5D4016821F01001016084F870
:10084000358084F83490CCE7BDE8F88314000020AC
:100850002DE9F041044600F095F906465CB102200E
:1008600084F83500002584F834502068016821F0B0
:10087000010101600DE00120BDE8F08100F082F986
:10088000801B052805D920206065032084F83500E9
:10089000F2E720680068C007F0D12268116820489C
:1008A0000140D4E901031843D4E903363343184324
:1008B00063691843A3691843E3691843236A18431B
:1008C0000843616A042903D1D4E90B13194308438F
:1008D000106020684069666A20F0070130460E43C8
:1008E000012704280CD1A06A0643E06A40B12046E3
:1008F000FFF742FE20B14020606584F83570BAE70A
:10090000206846612046FFF723FE94F85C203F21D3
:1009100091408160656584F835700020ACE7000087
:100920003F8010F02DE9F0410446866D90F83400C8
:10093000002501280DD0012084F8340094F835708A
:100940000020012F07D084F8340002252846BDE896
:10095000F0810220FBE7022784F8357060652046AD
:10096000FFF734FE94F85C103F208840B0602068A8
:10097000016841F016010160206C20B12068016817
:1009800041F0080101602068016841F00101016047
:10099000DCE700002DE9F84FDFF8BCA100220125BB
:1009A00003264FF00F090AF1040BAAF1040E00BF51
:1009B0000B6805FA02F42340A34270D10F7907F0C7
:1009C0000307012F01D0022F16D187684FEA420892
:1009D00006FA08FC27EA0C07D1F80CC00CFA08FC50
:1009E0004CEA070CC0F808C04768A7430C79C4F369
:1009F000001494403C4344600C79E443A4070AD0BB
:100A0000C4684FEA420C06FA0CF7BC438F6807FA39
:100A10000CF72743C7600C7904F00304022C12D1B1
:100A2000D40800EB840CDCF820405707FF0E09FACD
:100A300007F824EA0804D1F8108008FA07F848EA11
:100A40000408CCF8208004684FEA420C06FA0CF740
:100A5000BC430F7907F0030707FA0CF72743076039
:100A60004C6814F4403F70D03C4C276847F48047F2
:100A70002760246822F0030704F480440094384C73
:100A800007EB040CDCF8084897074FEA177809FAD7
:100A900008F7BC43334FB84202D1002724E054E0AA
:100AA000314FB84201D101271EE0304FB84201D189
:100AB000022719E02E4FB84201D1032714E02D4F31
:100AC000B84201D104270FE02B4FB84201D10527CE
:100AD0000AE02A4FB84201D1062705E0284FB84264
:100AE00001D1072700E0082707FA08F72743CCF8C9
:100AF0000878DAF800405746D1F804C09C435FEA12
:100B0000CC2C00D51C433C60DBF800405F46D1F89C
:100B100004C09C435FEA8C2C00D51C433C60DEF88B
:100B200000407746D1F804C09C435FEA8C3C00D576
:100B30001C433C60084F083F3C68D1F804C09C430C
:100B40005FEACC3C00D51C433C60521C102AFFF4E9
:100B50002FAFBDE8F88F0000083C01404438024048
:100B60000030014000000240000402400008024042
:100B7000000C024000100240001402400018024025
:100B8000001C0240014880687047000008000020F7
:100B900070B5040025D094F83D00002520B984F8F4
:100BA0003C50204600F052FA242084F83D00206892
:100BB000016821F0010101602068016841F40041F1
:100BC00001602068016821F40041016000F0AAFB87
:100BD0004D4A6168914201D84C4900E04C49884235
:100BE00001D2012070BD4B492368B0FBF1F15E6872
:100BF00026F03F060E435E606368934206D94FF4C9
:100C0000967359434FF47A73B1FBF3F12368491C8F
:100C10001E6A26F03F06314319626168914210D87E
:100C20004900401EB0FBF1F2521CC2F30B02042A31
:100C300001D2042022E0B0FBF1F0401CC0F30B0015
:100C40001CE0A268F2B301EBC10303EB0116431EE3
:100C5000B3FBF6F35B1C43F480431B0549D092B30E
:100C600001EBC10202EB0111401EB0FBF1F0401C90
:100C7000C0F30B0040F4804040F400402168CA6992
:100C80004CF6FF739A431043C861D4E9071001433F
:100C90002068026822F0C00211430160D4E9030118
:100CA00001432068826848F2FF339A431143816010
:100CB000D4E9050108432168CA6822F0FF02104305
:100CC000C86001E00EE016E02068016841F0010113
:100CD00001602564202084F83D00256384F83E509F
:100CE000002070BD01EB4106431EB3FBF6F35B1C15
:100CF000B3E70120C2E701EB4101401EB0FBF1F078
:100D0000401CC0F30B00B7E7A086010080841E00E2
:100D100000093D0040420F002DE9FF4F83B09A4685
:100D2000DDE9118793460446DDF84090FFF72AFF7E
:100D3000054694F83D00202870D1192301227449FA
:100D40002046009501F0FEF90028F5D194F83C000A
:100D5000012863D0012084F83C0020680168C9079D
:100D600003D1016841F0010101602068016821F4AC
:100D700000610160222084F83D00402084F83E009C
:100D800000262664C4F82490A4F82A80608D20856B
:100D90006048E062CDE9007553465A462046049902
:100DA00001F0D2F8002879D1208DD0B1012821D0CE
:100DB0000228206824D0416980690090208D032892
:100DC00066D801282BD0544902283B464FF0000238
:100DD000009557D08846204601F0B4F900285DD12F
:100DE0003AE02068416981690091016841F400712D
:100DF00001607DE02068016821F480610160F0E716
:100E0000016821F4806101602068016841F400619B
:100E10000160206841698069009069E075E02A46B8
:100E20003946204601F034FA88BB54E02068016856
:100E300041F40071016020680069616A0870606AAD
:100E4000401C6062218D491E2185618D491E61858E
:100E500021680969017042E02068016821F480611D
:100E6000016020680069616A0870606A401C606205
:100E7000208D401E2085608D401E60853B460022EF
:100E800041460095204601F05DF900B9CEE705E046
:100E90002A463946204601F0FBF918B1012007B077
:100EA000BDE8F08F20680069616A0870606A401CC4
:100EB0006062208D401E81B22185608D401E60855C
:100EC00020684269D243520712D4032903D1016832
:100ED00021F48061016020680069616A0870606ABD
:100EE000401C6062208D401E2085608D401E608504
:100EF000208D00287FF462AF202084F83D0084F824
:100F00003E6084F83C600020C9E70220C7E700008B
:100F1000020010000000FFFF040001002DE9FF4F58
:100F200083B09A46DDE9119793460446DDF8408088
:100F3000FFF728FE054694F83D0020287FD11923AD
:100F4000012240492046009501F0FCF8002876D1A6
:100F500094F83C00012872D0012084F83C002068FD
:100F60000168C90703D1016841F0010101602068EF
:100F7000016821F400610160212084F83D004020D7
:100F800084F83E0000262664C4F82480A4F82A9041
:100F9000608D20852C48E062CDE9007553465A46A5
:100FA0002046049901F04EF870B930E02A463946DF
:100FB000204601F0A5F958B1206C042804D120681E
:100FC000016841F400710160012007B0BDE8F08FB5
:100FD000606A216800780861606A401C6062218D47
:100FE000491E89B22185628D521E6285226853692D
:100FF000DB435B070BD469B100781061606A401C69
:101000006062208D401E2085608D401E6085208D91
:101010000028CBD12A463946204601F067F800283F
:10102000CAD154F83D0B016841F4007101602020E1
:1010300004F81E09E67766770020C6E7FFE702207E
:10104000C3E70000020010000000FFFF10B586B0EB
:10105000044614216846FFF710FA134920688842B5
:1010600020D112480021026842F0020202600068AA
:1010700000F002000590C02000901220CDE901018F
:10108000032003900420049069460948FFF782FC7E
:1010900006481030016841F400110160006800F456
:1010A0000010059006B010BD0054004030380240DA
:1010B0000004024002488168027811448160704750
:1010C000080000200B4810B5016841F40071016070
:1010D000016841F480610160016841F48071016040
:1010E000032000F073F80F2000F006F800F024F859
:1010F000002010BD003C024070B50D4D04464FF479
:101100007A712878B1FBF0F00A490968B1FBF0F078
:1011100000F00EFB48B9102C07D200222146501EC9
:1011200000F034F800206C6070BD012070BD00003C
:1011300008000020140000200C4882B0016841F42F
:1011400080410160006800F4804000900748001F63
:10115000016841F0805101600068002200F0805079
:1011600000900F21901E02B000F010B844380240E9
:10117000002809DB00F01F02012191404009800096
:1011800000F1E020C0F8001170470000F0B40E4BF1
:101190001B680C46C3F30223C3F10705042D00D9D5
:1011A0000425191D072901D2002300E0DB1E0126BA
:1011B00006FA05F1491E214099409E40761E1640D0
:1011C0003143F0BC01F0CDBD0CED00E0064900F06C
:1011D000070208684FF6FF03184040EA0220034A5E
:1011E00010430860704700000CED00E00000FA05B5
:1011F0002DE9F0470E46050065D0DFF81481D8F8D8
:101200000000F7B200F00700B04207D288F8007083
:10121000D8F8000000F00700B04254D128683D4CD7
:10122000810712D5400703D5206840F4E0502060C4
:101230002878000703D5206840F4604020602068CB
:10124000A96820F0F000084320602878C0072DD05E
:10125000304968680839012812D0022813D00328C1
:1012600011D00968890700292DDA216821F00301CE
:1012700001432160FFF786FC814641F2883A0EE087
:1012800009688903EFE709688901ECE7FFF77AFC51
:10129000A0EB0901514502D90320BDE8F087206881
:1012A000696800F00C00B0EB810FEFD1D8F80010A6
:1012B000404601F00701B14207D90770006800F00D
:1012C0000700B04201D00120E7E72878400705D5A4
:1012D0002068E96820F4E05008432060287800077F
:1012E00006D52068296920F4604040EAC1002060EA
:1012F00000F038F82168084AC1F30311515CC84076
:101300000649086006480068FFF7F6FE0020C4E7BB
:10131000003C024008380240A039000814000020B8
:101320000C0000200448054900680968044AC1F31C
:101330008221515CC84070471400002008380240E8
:10134000B03900080448054900680968044AC1F337
:101350004231515CC84070471400002008380240F8
:10136000B0390008154810B5006810F00C02144898
:1013700013D04110042A0FD0082A0ED10F4C241F7D
:101380002268236802F03F025B0207D52068C0F3A1
:101390008810A0FB010106E0084610BD2168C1F3DA
:1013A0008811A1FB00010023FEF7BEFF2168C1F3F5
:1013B0000141491C4900B0FBF1F010BD0838024062
:1013C0000024F4002DE9F84F04006ED02078DFF8F7
:1013D0004C93C007A9F104054AD009F10400016843
:1013E000C1F38101012908D00068C0F381000228FF
:1013F0000AD1D9F80000400206D52868800337D505
:1014000060680028E1D033E06068B0F5803F10D01C
:10141000B0F5A02F286810D020F48030286028680C
:1014200020F4802028606068A8B1FFF7ABFB064677
:101430000DE0286840F48030F4E740F48020286014
:10144000F7E700BFFFF79EFB801B642873D828686E
:101450008003F7D50CE0FFF795FB064605E000BFDB
:10146000FFF790FB801B6428F0D828688003F7D42E
:101470002078DFF8AC8280074FF0000A3ED5A748FD
:10148000001D016811F00C0F08D00068C0F3810046
:1014900002280BD1D9F80000400207D42868800741
:1014A00016D5E068012800D112E033E1E068B8B158
:1014B0000120C8F80000FFF765FB064605E000BF05
:1014C000FFF760FB801B0228C0D828688007F7D58B
:1014D0002868216920F0F80040EAC10028600DE08A
:1014E000C8F800A0FFF74EFB064604E0FFF74AFBF2
:1014F000801B02281FD828688007F7D420780007AF
:1015000022D5864F87486169703771B1012101602A
:10151000FFF738FB064604E0FFF734FB801B022888
:1015200009D838688007F7D50EE0C0F800A0FFF7AB
:1015300029FB064605E082E0FFF724FB801B02281A
:101540007DD838688007F7D42078400768D5DFF861
:10155000CCB100270BF13C0BDBF80000C0000BD432
:10156000DBF8001041F08051CBF80010DBF80000F0
:10157000012700F0805000906B4E3068C00510D4F9
:10158000306840F480703060FFF7FCFA009005E0AE
:10159000FFF7F8FA0099401A022850D83068C005C1
:1015A000F6D55E4EA0686C3601280FD0052830684D
:1015B00010D020F001003060306820F0040030606E
:1015C000A068B8B1FFF7DEFA00900FE0306840F095
:1015D0000100F4E740F004003060F7E7FFF7D2FACB
:1015E0000099411A41F28830814266D830688007FC
:1015F000F4D50EE0FFF7C6FA009007E0FFF7C2FA55
:101600000099411A41F28830814256D830688007EB
:10161000F4D42FB1DBF8001021F08051CBF800108A
:10162000A069C8B33D49091D0968C1F381010229B8
:101630004AD00228504607D0C8F8600000E03CE0DD
:10164000FFF7A0FA04463BE04746C8F86000FFF702
:1016500099FA064605E000BFFFF794FA801B0228BE
:101660002BD828688001F7D4D4E907010843A16A80
:101670002E4A490802EB0141626A41EA821108439D
:1016800094F82C1040EA0161C9F800100120386676
:10169000FFF778FA044606E03EE000BFFFF772FA73
:1016A000001B022809D828688001F7D534E000BF64
:1016B000FFF768FA001B022802D90320BDE8F88F63
:1016C00028688001F4D427E00128F7D0D9F8000079
:1016D000E26900F4800191421CD1226A00F03F01CE
:1016E000914217D147F6C071626A0140B1EB821F87
:1016F00010D1A26A4FF0FF3300F4403103EB5202E5
:10170000B1EB024F06D194F82C1000F07060B0EBF2
:10171000016F01D00120D1E70020CFE7043802405B
:1017200000004742800E4742007000400000FFFF6B
:1017300010B5401EB0F1807F01D3012010BD4FF0E5
:10174000E02460610F21601701F00BFB0020A06115
:1017500007202061002010BD70B590F83C20012AC0
:1017600032D0012480F83C40022280F83D200368FA
:101770005A689D6822F070060A6832435A60134B1B
:1017800002689A4214D0B2F1804F11D0104B9A42A5
:101790000ED0104B9A420BD00F4B9A4208D00F4BF1
:1017A0009A4205D00E4B9A4202D00E4B9A4204D177
:1017B000496825F080031943916080F83D4000217D
:1017C00080F83C10084670BD022070BD000001404A
:1017D0000004004000080040000C004000040140EC
:1017E000004001400018004010B5040003D094F8F8
:1017F0003D0010B107E0012010BD002084F83C003E
:10180000204600F01FF8022084F83D00211D2068CA
:1018100000F04CFF012084F8460084F83E0084F874
:101820003F0084F8400084F8410084F8420084F8C6
:10183000430084F8440084F8450084F83D0000200B
:1018400010BD000008B50068B0F1804F08D1054810
:10185000016841F001010160006800F001000090A2
:1018600008BD00004038024070B5044690F83C00C6
:101870000025012817D0012684F83C60022084F856
:101880003D002068826822F0770222F47F42826065
:101890000868502838D00DDC20284FD005DC90B3E4
:1018A000102811D14AE0022070BD302846D04028CF
:1018B0000AD13BE060282FD070280DD0B0F5805FB2
:1018C00003D0B0F5005F12D0012584F83D60002000
:1018D00084F83C00284670BDCB68D1E9012120681E
:1018E00000F04CFF2068816841F0770109E0CB6887
:1018F000D1E90121206800F041FF2068816841F4AE
:1019000080418160E1E719E0CA684968206801F018
:1019100009F85021206806E0CA684968206801F08B
:1019200012F86021206800F033FFCEE7CA684968EA
:10193000206800F0F7FF40212068F4E722680146A4
:101940001046F0E710B586B0044614216846FEF74D
:1019500094FD2068B0F1804F14D10B48002102683B
:1019600042F0010202600068022200F001000590CE
:1019700001200090CDE90121CDE90310694603481B
:10198000FFF708F806B010BD3038024000000240F2
:1019900070B5044690F83C0000260D4601280FD093
:1019A000012084F83C006AB1042A1DD0082A2FD0F7
:1019B0000C2A3FD00126002084F83C00304670BD40
:1019C000022070BD206800F0EBFE2068816941F0C4
:1019D000080181612068816921F00401816120682A
:1019E00081692A69114311E0206800F009FF20682D
:1019F000816941F4006181612068816921F480611D
:101A00008161206881692A6941EA02218161D2E706
:101A1000206800F02BFF2068C16941F00801C16116
:101A20002068C16921F00401C1612068C1692A6987
:101A3000114311E0206800F04DFF2068C16941F4B6
:101A40000061C1612068C16921F48061C1612068C1
:101A5000C1692A6941EA0221C161ACE710B50400FD
:101A600003D094F83D0010B107E0012010BD002024
:101A700084F83C00204600F01EF8022084F83D0067
:101A8000211D206800F012FE012084F8460084F831
:101A90003E0084F83F0084F8400084F8410084F858
:101AA000420084F8430084F8440084F8450084F838
:101AB0003D00002010BD704770477047F8B50168C1
:101AC00004460868CA684B6910F00F0F4FF0000514
:101AD00059D003F0010602F49077374365D0C1076F
:101AE00005D0D10503D5616C41F001016164410766
:101AF00005D5D90703D0616C41F00201616481070B
:101B000005D5D90703D0616C41F004016164010778
:101B100007D502F02001314303D0616C41F0080188
:101B20006164616C00293AD0800604D5900602D524
:101B3000204600F0DEFF20684069616CC0F3801031
:101B4000090700D460B3204600F09EFF206840697A
:101B5000400621D52068143050E8001F21F04001D4
:101B600040E80012002AF5D1E06BA8B17249016586
:101B7000E06BFEF78BFD002811D0E06B016D01B02A
:101B8000BDE8F040084783060FD593060DD52046E3
:101B9000BDE8F84000F0ADBF2046FFF78EFFF8BD6E
:101BA0002046FFF78AFF6564F8BD266B2023012ECF
:101BB0007ED1C6067CD5D6067AD5086848680090DE
:101BC00048694FF0020640064DD5E26B1068406848
:101BD0004FF480770004000C3AD0A18D814237D9B0
:101BE000E085D069B8422DD020680C3050E8001F45
:101BF00021F4807140E80012002AF5D120681430E9
:101C000050E8001F21F0010140E80012002AF5D140
:101C10002068143050E8001F21F0400140E8001215
:101C2000002AF5D184F84230256320680C3050E852
:101C3000001F21F0100140E80012002AF5D1E06BEE
:101C4000FEF7DBFC6663A08DE18D401A81B206E0F1
:101C5000A18D8142A8D1D069B842A5D16663204642
:101C6000FFF72AFFF8BDA08DE18D401A81B2E08D0B
:101C70000028F7D00029F5D020680C3050E8002F5C
:101C800022F4907240E80027002FF5D1206814302C
:101C900050E8002F22F0010240E80027002FF5D184
:101CA00084F84230256320680C3050E8002F00E0B3
:101CB00006E022F0100240E80023002BF3D1CDE72C
:101CC00005062BD5150629D594F841002128C9D140
:101CD000A068B0F5805F01D12069B0B1206A411CD5
:101CE0002162216800784860E08C401E0004000CEE
:101CF000E084B7D12068C16821F08001C16020680C
:101D0000C16841F04001C160F8BD206A0088C0F39D
:101D100008004860206A801C2062E5E74006F3D591
:101D20005006F1D5CA68204622F04002CA6084F805
:101D3000413000F0F0F8F8BD7929000870B50400D2
:101D400004D094F84100002510B106E0012070BDD8
:101D500084F84050204600F023F8242084F8410005
:101D60002068C16821F40051C160204600F022FFC4
:101D70002068016921F4904101612068416921F0E6
:101D80002A0141612068C16841F40051C160656465
:101D9000202084F8410084F842006563002070BD73
:101DA0002DE9F04387B0064614216846FEF765FB2F
:101DB0002C493068884251D12B480025016841F4F4
:101DC000002101600068284900F4002010390590C6
:101DD000086840F001000860086800F00100059004
:101DE000086840F0040008600868022400F004005D
:101DF0004FF008080094CDE9048001AA032782E887
:101E0000B00069461948FEF7C5FD4FF4806901AA84
:101E1000CDF8009082E8B00169461548FEF7BAFD9A
:101E2000154C144820604005C4E90105C4E9035974
:101E3000C0146561C4E90650256220466562FEF75C
:101E400007FD08B1FEF7D7FBF4630022052134201B
:101E5000A663FFF79BF93420FFF78AF907B0BDE8C6
:101E6000F0830000004C0040403802400000024077
:101E700000080240406002407801002090F84230A3
:101E8000202B01D00220704721B11AB10023036337
:101E900000F016BF0120704700681A4988422FD110
:101EA00019480178AA2926D14178552923D1017AE8
:101EB000FF2920D1418849BA00EE101A1349F8EEE3
:101EC000400AB2EE040A80EE801A81ED001A828880
:101ED00052BA00EE902AF8EE600A80EE801A81ED88
:101EE000011AC08840BA00EE900AF8EE600A80EE4F
:101EF000801A81ED021A092203490548FFF7BEBF87
:101F000070470000004C0040284100201C41002088
:101F10003001002070477047FEE701684A69D243EC
:101F200052050FD46FF480624A61002140F8301FDF
:101F3000202242738173026942F00402026101733C
:101F400001207047002070472DE9F84F04460068D3
:101F500089460B9D01689846174641F480610160EF
:101F60002068016841F48071016000954FF0011B09
:101F70000022594620460A9B00F0E4F84FF4007A0C
:101F800040B120680068C00501D5C4F840A0032016
:101F9000BDE8F88F216809F0FE0008612B4628494A
:101FA00020460A9A00F016F9F0BB20684169806962
:101FB00000902A4620460A9900F0A2F940B1206C10
:101FC00004283AD12068016841F40071016034E0CE
:101FD000FEB2B8F1010F09D02168380A08612A461B
:101FE00020460A9900F08CF90028E8D120680661A3
:101FF0002A4620460A9900F083F90028DFD120689C
:10200000016841F480710160009500225946204624
:102010000A9B00F097F80028B3D1216809F0FF006F
:1020200040F00100086100E007E02B46044920462B
:102030000A9A00F0CFF80028AAD00120A8E70000F3
:10204000020001002DE9F843044600680D46DDE971
:10205000089701689846164641F4807101604B4626
:1020600000224FF001112046009700F06BF848B1B4
:1020700020680068C00502D54FF40070206403207A
:10208000BDE8F883216805F0FE0008613B464A463A
:102090001549204600F09EF888B92068416980699A
:1020A00000903A464946204600F02AF948B1206C93
:1020B000042804D12068016841F400710160012006
:1020C000DEE7F5B2B8F1010F09D02168300A0861E6
:1020D0003A464946204600F013F90028E7D1206827
:1020E00005610020CCE700000200010070B5164633
:1020F0000D4604461EE02046FFF70FFF08B1012001
:1021000070BD681C16D0FEF73DFD801BA84200D8AC
:1021100085B920684069C04340070BD5002044F8CA
:10212000300F20216173A073216941F020012161EA
:102130002073E4E720684069C0434007DBD40020F7
:1021400070BD00002DE9F047984617460D4604463D
:10215000C1F30746DDF820902AE000BFB8F1FF3F49
:1021600026D0FEF70FFDA0EB0901414502D8B8F1DA
:10217000000F1DD12068012E16D0806925EA0000CD
:102180000004000C12D00020B84211D1002044F805
:10219000300F20216173A073216941F0200121617A
:1021A00020730120BDE8F0874069E7E70120EBE7F5
:1021B0002068012E0AD0806925EA00000004000C86
:1021C00006D00020B842C9D00020EBE74069F3E711
:1021D0000120F7E72DE9F047984616460D460446DC
:1021E0004FF000094FF0200AC1F3074723E02068B1
:1021F0004069C043400515D42068016841F400716E
:10220000016021686FF480604861C4F8309084F800
:102210003DA084F83E90216C41F00401216484F8D3
:102220003C9021E0701C06D0FEF7ACFCA0EB08004F
:10223000B04203D816B1012F1FD021E02068012F32
:1022400015D0806925EA00000004000C18D000BFFA
:1022500044F8309F84F80DA084F80E90216941F075
:102260002001216184F80C900120BDE8F0874069CD
:1022700025EA00000004000CEAD12068406901E072
:102280002068806925EA00000004000CAFD1ECE76B
:102290002DE9F041002590460E460446202728E00F
:1022A0004069C043C0060CD454F8301B6FF01000D6
:1022B000486144F810596777A577206A206225772E
:1022C00014E0FEF75FFCA0EB0800B04200D886B92E
:1022D00020684069C04340060BD544F8305F6773FF
:1022E000A573206940F02000206125730120BDE81E
:1022F000F08120684169C9434906D1D40020F6E73E
:1023000070B516460D4604461EE02046FFF705FE52
:1023100008B1012070BD681C16D0FEF733FC801B8D
:10232000A84200D885B920684069C04300060BD593
:10233000002044F8300F20216173A073216941F01F
:10234000200121612073E4E720684069C043000652
:10235000DBD4002070BD0000114808B5016841F0D1
:1023600080010160016801F080010091016841F085
:1023700001010160016801F001010091016841F073
:1023800004010160016801F004010091016841F05D
:1023900002010160006800F00200009008BD00002A
:1023A0003038024010B58EB0002407940894099488
:1023B0000A940B941C2168460C94FEF75EF81E48A4
:1023C0004FF0804101605321C0E9011444F61F61C0
:1023D000C0E903148461FFF707FA08B172B6FEE79B
:1023E0004FF48050079007A91348FFF73DFA08B152
:1023F00072B6FEE71048FFF731FB08B172B6FEE790
:102400000B940BA90C480C94FFF7A6F908B172B60F
:10241000FEE76020CDE900040294002269460648E8
:102420000494FFF7B5FA08B172B6FEE70248FFF769
:1024300089FA0EB010BD0000E8000020FEE7FEE7BC
:102440001FB540F2F651884201D3032007E0182857
:1024500001D8FF2003E014490003B1FBF0F08DF830
:102460000C0001220421002000F022F801210A22A0
:1024700003A88DE807000B46FE2280210B48FEF7DB
:102480004DFD00220421104600F012F80122072120
:10249000002000F00DF804B001220521BDE8104035
:1024A000002000F005B8000040787D019400002075
:1024B0002DE9FF47012503AE0A2400961746CDE912
:1024C00001548846814602462B4680210D48FEF77E
:1024D00023FC01209DF80C1000FA08F06FB10843AE
:1024E0008DF80C000096CDE9015401234A46802165
:1024F0000448FEF713FDBDE8FF8781438DF80C10FB
:10250000F0E70000940000201FB5DFED200AB5EED3
:10251000C00A0023F1EE10FA1B4A02D29FED1C0AFA
:1025200005E010EE101A914201DDB0EE600A8288DB
:1025300080EE201A41880078521A00EE102A0622F6
:102540008DF80C30F8EEC00A00EE101A02EB800095
:102550008DF80D30B8EE400AC2B20A2301EE200A0F
:10256000BCEEC00A10EE101A8DF80E10080A8DF895
:102570000F00042103A88DE80B00012380210548EA
:10258000FEF7CCFC1FBD00000000344300003443C4
:1025900000000000940000203220FFF751FF0D4E94
:1025A0000B4C06F10C0500BF94ED000A0948FFF73B
:1025B000ABFF94ED010AB01DFFF7A6FF94ED020AF0
:1025C0002846FFF7A1FF142000F04CFCECE70000C8
:1025D0001C41002080000020FFF7DEFF012000F0FA
:1025E00041FCFBE7012000F03DFCFBE710B5FEF7E6
:1025F00061FD01F0D9F8012803D0BDE8104001F0D9
:1026000065B810BD30B593B030216846FDF735FF91
:1026100014210CA8FDF731FF1E480025016841F088
:1026200080510160006800F0805011901A480168E4
:1026300041F4804101600068022400F48040119060
:1026400001200090000401908001CDE9064008209F
:1026500008904FF4A870CDE9090404200B90684657
:10266000FEF7B0FE08B172B6FEE70CA90F2081E8B4
:1026700031004FF4A0500F904FF48050109005217E
:102680000CA8FEF7B5FD002801D072B6FEE713B026
:1026900030BD000040380240007000400248016830
:1026A00041F470010160704788ED00E0F0B5026808
:1026B000274B284D284E294F294C4FF0804C9842EB
:1026C00009D0604507D0A84205D0B04203D0B84237
:1026D00001D0A04204D122F0700E4A6842EA0E02F4
:1026E00098421BD0604519D0A84217D0B04215D0EF
:1026F000B84213D0A04211D01A4DA8420ED01A4DA4
:10270000A8420BD0194DA84208D0194DA84205D0B7
:10271000184DA84202D0184DA84203D122F44075AA
:10272000CA682A434D6922F080022A438D68C56237
:102730000D688562984201D0A04201D10969016308
:10274000016841F004010160012141610260F0BDB6
:10275000000001400004004000080040000C004060
:102760000004014000400140004401400048014095
:1027700000180040001C00400020004010B5846894
:1027800042EA032224F47F440A432243826010BDBC
:10279000826822F070020A4342F0070181607047AC
:1027A000F0B5036A026A22F001020262426884699B
:1027B000124E24F073050C682C4323F002058B683D
:1027C0002B430D4DA84201D0B04205D123F008079C
:1027D000CB683B4323F00403A84201D0B04205D1AB
:1027E0004D6922F4407215438A692A43426084612C
:1027F000496841630362F0BD0000014000040140EC
:10280000F0B5026A036A23F0100303624368846927
:102810000D6824F4E64444EA05248D6822F0200281
:1028200042EA05120F4D104EA84201D0B04206D127
:10283000CF6822F0800242EA071222F04002A8424A
:1028400001D0B04207D14D6923F4406343EA8503C8
:102850008D6943EA8503436084614968816302624C
:10286000F0BD00000000014000040140F0B5026A24
:10287000036A23F4807303624368C46922F400721C
:1028800024F073050C68124E2C438D6842EA052231
:102890000E4DA84201D0B04206D1CF6822F40062AA
:1028A00042EA072222F48062A84201D0B04207D156
:1028B0004D6923F4405343EA05138D6943EA051338
:1028C0004360C4614968C1630262F0BD0000014019
:1028D0000004014030B5046A026A22F480520262A8
:1028E0004268C3690D6823F4E64343EA05238D6813
:1028F00024F4005444EA0534084DA84202D0084D9F
:10290000A84204D14D6922F4804242EA8512426015
:10291000C36149680164046230BD000000000140E9
:102920000004014010B5036A046A24F00104046243
:10293000846924F0F00444EA021423F00A020A43F2
:102940008461026210BD10B5036A046A24F01004A9
:102950000462846923F0A00324F4704444EA023240
:1029600043EA01118261016210BD00000148FFF7D6
:10297000A5B800003001002010B5806B0021C18592
:10298000FFF79BF810BD70B5846B2068406994F820
:102990004110C0F3C0100025212904D118B1E584ED
:1029A000204600F098F82068406994F84210C0F37F
:1029B0008010222904D118B1E585204600F064F882
:1029C000606C40F0100060642046FFF776F870BD40
:1029D00010B50146806B096809684FF00002C9050F
:1029E0002ED4C28501680C3151E8003F23F4807376
:1029F00041E80034002CF5D10168143151E8003F62
:102A000023F0010341E80034002CF5D101681431B2
:102A100051E8003F23F0400341E80034002CF5D199
:102A2000202180F84210016B012909D101680C3185
:102A300051E8003F23F0100341E80034002CF5D1A9
:102A40004263016B012902D0FFF726FA10BD818D88
:102A5000FFF732F810BD10B5806B01214163016BA7
:102A6000012902D0FFF756FA10BD818D4908FFF702
:102A700023F810BD092202490248FFF7FFB9000000
:102A8000284100203001002001680C3151E8002F5E
:102A900022F4907241E80023002BF5D10168143133
:102AA00051E8002F22F0010241E80023002BF5D16C
:102AB000016B012909D101680C3151E8002F22F086
:102AC000100241E80023002BF5D1202180F84210AC
:102AD00000210163704701680C3151E8002F22F09A
:102AE000C00241E80023002BF5D1202180F84110DD
:102AF000704708B590F84210222901D0022008BD85
:102B000082684FF480539A4201D1016921B1816AF0
:102B10009A421BD04AB10AE00268816A5268C2F345
:102B200008020A80816A891C08E0026972B10268A1
:102B3000526802F07F020A70816A491C8162C18D6D
:102B4000491E0904090CC18503D01BE002685268C4
:102B5000F1E70168CA6822F02002CA600168CA6809
:102B600022F48072CA6001684A6922F001024A6157
:102B7000202180F8421000214163026B012A03D01A
:102B8000FFF78AF9002008BD016301680C3151E8A4
:102B9000002F22F0100241E80023002BF5D101683C
:102BA0000A68D20602D50A6849680091818DFEF74D
:102BB00083FFE7E770B5044600680169E26821F425
:102BC0004051114301612169A068E26908436169CC
:102BD000114308432168CA6849F20C639A430243CF
:102BE000CA6020684169A26921F4407111434161C2
:102BF00031492068884202D03049884202D1FEF72C
:102C0000A1FB01E0FEF78EFBE26900231921642598
:102C10003226B2F5004F626828D0A0FB0101930F65
:102C20009200FDF781FB0146B0FBF5F06FF0180252
:102C3000504301EB800006EB0010B0FBF5F000F014
:102C4000F002B1FBF5F002EB0012B1FBF5F06FF012
:102C50001803584301EB800006EB0010B0FBF5F0C1
:102C600000F00F0021681044886070BDA0FB0101D6
:102C700092185B41FDF758FB0146B0FBF5F00201ED
:102C8000B1FBF5F06FF01803584301EB800006EB41
:102C9000C000B0FBF5F000F0F80002EB4002B1FB21
:102CA000F5F0584301EB800006EBC000B0FBF5F0F7
:102CB00000F00700D6E700000010014000140140BA
:102CC00038B5816204468285002013466064222262
:102CD00084F84220E56B1F4AEA63E56B1E4A2A64CA
:102CE000E56B1E4AEA64E26B10650A462168E06BF8
:102CF000091DFDF717FE30B110206064202084F814
:102D00004200012038BD20680168406800902069B9
:102D100048B120680C3050E8001F41F4807140E851
:102D20000012002AF5D12068143050E8001F41F04D
:102D3000010140E80012002AF5D12068143050E863
:102D4000001F41F0400140E80012002AF5D10020A8
:102D500038BD0000D1290008572A0008872900083B
:102D6000FEE70907090E002804DB00F1E02080F8E7
:102D70000014704700F00F0000F1E02080F8141DEF
:102D80007047000090B0FEF79DF9FFF73BFCFFF79E
:102D9000E3FA2A480024016841F400110160006848
:102DA000224600F400100E9005210D20FEF7EEF9EA
:102DB0000D20FEF7DDF92348214901602249C0E9D1
:102DC00001144FF48041C0E9034144618461C4614E
:102DD0000462FDF7DDFE08B172B6FEE7FFF7E2FA26
:102DE00018481A499C3001604FF4E131C0E90114E0
:102DF0000C21C460C0E904418461C461FEF79EFFF8
:102E000008B172B6FEE7FFF735FE1C22104968468E
:102E1000FDF701FB0021684600F030F80D4C0C492D
:102E20001C2220601C3107A8FDF7F5FA002107A835
:102E300000F024F8606000F01CF8FEE73038024033
:102E40000054004094000020A0860100004C004087
:102E5000603900080000002001460020842900D0CD
:102E6000C81C704710B500B9012000F023FB0020FA
:102E700010BD10B500F044FB002010BD7FB50D461D
:102E800004464169B0F9080081B1A16971B1FFF749
:102E9000E3FFD4E905128DE80700D4E900102B46C2
:102EA000226900F056FC039004B070BDFFF7D4FF18
:102EB00003A9CDE90001208A2B4682B2D4E9001093
:102EC00000F01AFC012801D00020EDE70398EBE7A1
:102ED0002DE9F041184C0F460546E6682068001DB4
:102EE00000F020FA38B9206890F82C1001208840B2
:102EF000216981432161681C07D137B12168BDE890
:102F0000F0410E48091D00F051BA20683544B54221
:102F10004560216805D2A06BBDE8F041091D00F0B5
:102F20002DBA606B091D00F029FAA06A854200D213
:102F3000A562BDE8F081000018000020080500200F
:102F40002DE9F041054600F03DFA2E4CA068401CEA
:102F5000A06020682C4F10B1606940B32DE025605F
:102F6000A068012829D1002606EB860007EB800027
:102F700000F0F6F9761C072EF6D323488C3000F0CB
:102F8000EFF92148A03000F0EBF91F48B43000F011
:102F9000E7F91D48C83000F0E3F91B48DC3000F0C9
:102FA000DFF919488C3060631430A06305E02068B5
:102FB000E96AC06A884200D82560606A401C606285
:102FC000E96A0120226988401043206101EB8100F9
:102FD00007EB8000291D00F0E9F900F013FA6069A1
:102FE00000280CD02068E96AC06A884207D20749E5
:102FF0004FF080500860BFF34F8FBFF36F8FBDE875
:10300000F0810000180000202C04002004ED00E0F6
:1030100010B5044690F8510058B101280CD0022890
:103020000FD0502080F31188BFF34F8FBFF36F8F05
:10303000FEE7206B00F0FAF92046BDE8104000F0F2
:10304000F5B910BD10484FF47051420706D0C01DAD
:103050000D4920F00700411AC1F570510B4A0023B9
:103060000144C2E900030839183A21F00701116050
:103070004B600B600B1AC0E9001393604FF00040E7
:1030800053605061704700001C0500206C00002058
:10309000144E154CA6F1C8074FF08058DFF84C903D
:1030A00012E000BF00F08EF9F068C568281D00F03E
:1030B00039F9A068401EA0606068401E606000F0A2
:1030C000A1F92846FFF7A4FF60680028EAD1386814
:1030D0000128F9D9C9F80080BFF34F8FBFF36F8F74
:1030E000F2E70000F40400201800002004ED00E0E6
:1030F0002DE9F0479A46DDE9098481466FF0030324
:10310000206B03EB82021044089E20F0070778072B
:1031100007D0502080F31188BFF34F8FBFF36F8F1C
:10312000FEE7002561B1002023180A5C83F83420F3
:103130000A5C12B1401C1028F6D384F8435001E019
:1031400084F83450072E00D30626E662C4E91165E0
:10315000201D00F010F904F1180000F00CF92461B2
:10316000C6F107006462A061E56484F850505246DD
:103170004946384600F0C0F82060B8F1000F01D091
:10318000C8F80040BDE8F08730B5114900E01146AD
:103190000A688242FBD34B685C18844203D14068C2
:1031A00018444860084643681C18944209D1084CEA
:1031B000183C2468A24209D052681A4442600A6846
:1031C00012680260814200D0086030BD0460F9E7F7
:1031D0006C0000200648416B096829B1416BC96841
:1031E000C9684968816270474FF0FF31FAE7000013
:1031F0001800002008484068401C4FF0500080F341
:10320000118804D0BFF34F8FBFF36F8FFEE7BFF37A
:103210004F8FBFF36F8FFEE7740000202DE9F04160
:103220000546002700F0A2F9324E306808B9FFF7D2
:1032300009FF706905424ED1C5B3083568070ED045
:1032400005F00700C0F108000544680707D05020CA
:1032500080F31188BFF34F8FBFF36F8FFEE72DB35D
:103260007068854237D82348183001460C6801E061
:1032700020460C466168A94202D221680029F7D194
:1032800031688C4227D00768216801606068083780
:10329000411B10290FD96019420708D0502080F334
:1032A0001188BFF34F8FBFF36F8FFEE713E04160CC
:1032B0006560FFF769FF61687068401A7060B26806
:1032C000904200D2B060706901430020C4E900015F
:1032D000F068401CF06000F0DBFA780707D050205F
:1032E00080F31188BFF34F8FBFF36F8FFEE738462F
:1032F000BDE8F0815400002010B5031F4FF080742A
:103300001C601B1F21F001011960191F044B0B6089
:1033100014390A60091F6FF0020244380A6010BDB8
:10332000F5310008D0E9013201699A60D0E9012342
:103330005A604A68824201D182684A600022026172
:103340000868401E0860086870470000034B03606F
:1033500003F154000860802010607047D8010020FD
:1033600000F108014FF0FF32C0E90112C1600161B4
:1033700000210160704700210161704730B50B6882
:103380005A1C02D000F1080202E0026904E0224661
:10339000546825689D42FAD953684B6099608A60E9
:1033A000516008610168491C016030BD42684A6093
:1033B00093688B6093685960916008610168491C4B
:1033C00001607047502080F31188BFF34F8FBFF327
:1033D0006F8F0A494868401C486001280CD1084892
:1033E000006810F0FF0F07D0502080F31188BFF362
:1033F0004F8FBFF36F8FFEE770470000740000200F
:1034000004ED00E00849486828B1401E486001D139
:1034100080F311887047502080F31188BFF34F8FDD
:10342000BFF36F8FFEE700007400002070B5002826
:103430002AD0164DA0F1080460686969084207D1D6
:10344000502080F31188BFF34F8FBFF36F8FFEE7DB
:1034500022683AB1502080F31188BFF34F8FBFF339
:103460006F8FFEE78843606000F080F860686968ED
:10347000084468602046FFF787FE2869401C2861E1
:10348000BDE8704000F004BA70BD00005400002098
:103490004FF0E02000210161816105494FF47A720B
:1034A0000968B1FBF2F1491E4161072101617047D2
:1034B0001400002010B5020014D00F48006B38B182
:1034C000502080F31188BFF34F8FBFF36F8FFEE75B
:1034D00000F04CF800211046FFF7FAFC00F0D8F994
:1034E000002807D105494FF080500860BFF34F8F87
:1034F000BFF36F8F10BD00001800002004ED00E046
:1035000010B586B00024039405AA04A903A8049466
:10351000FFF71CFFDDE903010094CDE90110002352
:103520000EA11048059A00F014F90F490028C8624E
:1035300011D0502080F31188BFF34F8FBFF36F8FEE
:103540004FF0FF30886201204861CC6006B0BDE8D2
:10355000104000F041B806B010BD000049444C4591
:103560000000000091300008180000200248016BA4
:10357000491C016370470000180000201448016BCB
:1035800011B10121C16170470021C1610169B1FA26
:1035900081F1C1F11F0101EB81020E4951F8223086
:1035A0006BB101EB820101F108034A6852684A607D
:1035B0009A4201D152684A60D16801607047502038
:1035C00080F31188BFF34F8FBFF36F8FFEE70000CA
:1035D000180000202C0400201CB537480168374A29
:1035E000914207D1502080F31188BFF34F8FBFF372
:1035F0006F8FFEE700683149491E884207D150208D
:1036000080F31188BFF34F8FBFF36F8FFEE72C4914
:1036100008780190FF20087008788DF800009DF868
:1036200000009DF8002000F0F000904207D05020EC
:1036300080F31188BFF34F8FBFF36F8FFEE79DF8C4
:103640000000204C00F0500020700720A06005E032
:103650009DF8002052008DF80020401E9DF80020AB
:103660001206F5D4A060032807D0502080F31188FB
:10367000BFF34F8FBFF36F8FFEE74FF44070A06032
:10368000019808700C482030016841F47001016015
:10369000016841F070410160FFF7FAFE00206060B0
:1036A000FCF7E6FD0848016841F040410160FCF785
:1036B000CBFD00201CBD000000ED00E071C20F41F9
:1036C00000E400E07400002034EF00E010B550206A
:1036D00080F31188BFF34F8FBFF36F8F00F072F844
:1036E00018B104494FF080500860002080F3118821
:1036F00010BD000004ED00E02DE9FF5F8346DDE929
:103700000E87994616468A469000FFF787FD05000A
:103710001CD05420FFF782FD040014D00020256344
:1037200084F85100CDE90240CDE900874B4632468E
:1037300051465846FFF7DCFC2046FFF701FC01200C
:1037400004B0BDE8F09F2846FFF770FE4FF0FF3051
:10375000F6E7F0B585B0DDE90B640A9DA6B1DCB1F2
:10376000542700972663022684F85160002604AF90
:10377000CDE90246CDE90057FFF7BAFC2046FFF736
:10378000DFFB049805B0F0BD502080F31188BFF333
:103790004F8FBFF36F8FFEE7502080F31188BFF388
:1037A0004F8FBFF36F8FFEE70548416919B1006B7A
:1037B00018B10020704701207047022070470000B8
:1037C000180000202DE9F0412F4C0026206B28B175
:1037D000A069401CA0613046BDE8F081E5686D1C21
:1037E000E56013D1606B006838B1502080F3118818
:1037F000BFF34F8FBFF36F8FFEE7606BA16B616309
:10380000A063206A401C2062FFF7E4FCA06ADFF896
:103810007C80854209D3606B0068A0B1606BC06892
:10382000C7687868854211D2A0622068C06A00EB40
:10383000800158F82100012800D90126E0690028FC
:10384000C9D00126C7E74FF0FF30EDE7381DFFF77D
:1038500069FDB86A18B107F11800FFF763FDF96A4E
:103860000120226988401043206101EB810108EBAF
:103870008100391DFFF79AFDF86A2168C96A8842FC
:10388000C9D30126C7E70000180000202C0400203F
:103890002DE9F0472C4D00242746286B38B1FFF75F
:1038A00091FD286B401E2863286B40B146E05020F4
:1038B00080F31188BFF34F8FBFF36F8FFEE7A968C6
:1038C000224E0120D1B3A6F1B40980463068E8B198
:1038D000F068C46804F11800FFF724FD201DFFF70D
:1038E00021FDE06A2A6908FA00F11143296100EB21
:1038F000800109EB8100211DFFF758FDE06A29686E
:10390000C96A8842E2D3C5F81C80DFE70CB1FFF733
:1039100061FCAC6944B14646FFF754FF00B1EE616B
:10392000641EF9D10020A861E86938B1084901276F
:1039300038070860BFF34F8FBFF36F8FFFF762FD4B
:103940003846BDE8F087000018000020E0040020A1
:1039500004ED00E04FF04070E1EE100A7047000007
:10396000C4390008E5250008000000000000000040
:10397000800000000000000000000000B8390008CE
:10398000D9250008FDFF00000000000080000000B5
:1039900000000000000000000006101600061016CF
:1039A00000000000000000000102030406070809EF
:1039B0000000000001020304536572766F546173C6
:1039C0006B00000064656661756C745461736B0014
:1039D000F03900080000002094000000C401000835
:1039E000843A00089400002004470000E001000829
:1039F00000000000000000000100000010000000B6
:103A0000000000000024F40000000000000000009E
:103A100000000000000000000000000000000000A6
:103A20000000000000000000000000000000000096
:103A30000000000000000000000000000000000086
:103A40000000000000000000000000000000000076
:103A50000000000000000000000000000000000066
:103A60000000000000000000AAAAAAAA00000000AE
:103A7000000066003A0201006E00440202005F008E
:043A80003002000010
:040000050800018965
:00000001FF
